{
  "_format": "hh-sol-artifact-1",
  "contractName": "Minting",
  "sourceName": "src/contracts/Minting.sol",
  "abi": [
    {
      "inputs": [
        {
          "internalType": "string",
          "name": "_name",
          "type": "string"
        },
        {
          "internalType": "string",
          "name": "_symbol",
          "type": "string"
        },
        {
          "internalType": "string",
          "name": "_initBaseURI",
          "type": "string"
        }
      ],
      "stateMutability": "nonpayable",
      "type": "constructor"
    },
    {
      "anonymous": false,
      "inputs": [
        {
          "indexed": true,
          "internalType": "address",
          "name": "owner",
          "type": "address"
        },
        {
          "indexed": true,
          "internalType": "address",
          "name": "approved",
          "type": "address"
        },
        {
          "indexed": true,
          "internalType": "uint256",
          "name": "tokenId",
          "type": "uint256"
        }
      ],
      "name": "Approval",
      "type": "event"
    },
    {
      "anonymous": false,
      "inputs": [
        {
          "indexed": true,
          "internalType": "address",
          "name": "owner",
          "type": "address"
        },
        {
          "indexed": true,
          "internalType": "address",
          "name": "operator",
          "type": "address"
        },
        {
          "indexed": false,
          "internalType": "bool",
          "name": "approved",
          "type": "bool"
        }
      ],
      "name": "ApprovalForAll",
      "type": "event"
    },
    {
      "anonymous": false,
      "inputs": [
        {
          "indexed": true,
          "internalType": "address",
          "name": "previousOwner",
          "type": "address"
        },
        {
          "indexed": true,
          "internalType": "address",
          "name": "newOwner",
          "type": "address"
        }
      ],
      "name": "OwnershipTransferred",
      "type": "event"
    },
    {
      "anonymous": false,
      "inputs": [
        {
          "indexed": false,
          "internalType": "uint256",
          "name": "id",
          "type": "uint256"
        },
        {
          "indexed": true,
          "internalType": "address",
          "name": "buyer",
          "type": "address"
        },
        {
          "indexed": false,
          "internalType": "uint256",
          "name": "cost",
          "type": "uint256"
        },
        {
          "indexed": true,
          "internalType": "string",
          "name": "tokenURI",
          "type": "string"
        },
        {
          "indexed": false,
          "internalType": "uint256",
          "name": "timestamp",
          "type": "uint256"
        }
      ],
      "name": "Sale",
      "type": "event"
    },
    {
      "anonymous": false,
      "inputs": [
        {
          "indexed": true,
          "internalType": "address",
          "name": "from",
          "type": "address"
        },
        {
          "indexed": true,
          "internalType": "address",
          "name": "to",
          "type": "address"
        },
        {
          "indexed": true,
          "internalType": "uint256",
          "name": "tokenId",
          "type": "uint256"
        }
      ],
      "name": "Transfer",
      "type": "event"
    },
    {
      "inputs": [
        {
          "internalType": "address",
          "name": "to",
          "type": "address"
        },
        {
          "internalType": "uint256",
          "name": "tokenId",
          "type": "uint256"
        }
      ],
      "name": "approve",
      "outputs": [],
      "stateMutability": "nonpayable",
      "type": "function"
    },
    {
      "inputs": [
        {
          "internalType": "address",
          "name": "owner",
          "type": "address"
        }
      ],
      "name": "balanceOf",
      "outputs": [
        {
          "internalType": "uint256",
          "name": "",
          "type": "uint256"
        }
      ],
      "stateMutability": "view",
      "type": "function"
    },
    {
      "inputs": [],
      "name": "baseExtension",
      "outputs": [
        {
          "internalType": "string",
          "name": "",
          "type": "string"
        }
      ],
      "stateMutability": "view",
      "type": "function"
    },
    {
      "inputs": [],
      "name": "baseImage",
      "outputs": [
        {
          "internalType": "string",
          "name": "",
          "type": "string"
        }
      ],
      "stateMutability": "view",
      "type": "function"
    },
    {
      "inputs": [],
      "name": "cost",
      "outputs": [
        {
          "internalType": "uint256",
          "name": "",
          "type": "uint256"
        }
      ],
      "stateMutability": "view",
      "type": "function"
    },
    {
      "inputs": [],
      "name": "getAllNFTs",
      "outputs": [
        {
          "components": [
            {
              "internalType": "uint256",
              "name": "id",
              "type": "uint256"
            },
            {
              "internalType": "address",
              "name": "buyer",
              "type": "address"
            },
            {
              "internalType": "uint256",
              "name": "cost",
              "type": "uint256"
            },
            {
              "internalType": "string",
              "name": "imageURL",
              "type": "string"
            },
            {
              "internalType": "uint256",
              "name": "timestamp",
              "type": "uint256"
            }
          ],
          "internalType": "struct Minting.SaleStruct[]",
          "name": "",
          "type": "tuple[]"
        }
      ],
      "stateMutability": "view",
      "type": "function"
    },
    {
      "inputs": [
        {
          "internalType": "uint256",
          "name": "tokenId",
          "type": "uint256"
        }
      ],
      "name": "getAnNFTs",
      "outputs": [
        {
          "components": [
            {
              "internalType": "uint256",
              "name": "id",
              "type": "uint256"
            },
            {
              "internalType": "address",
              "name": "buyer",
              "type": "address"
            },
            {
              "internalType": "uint256",
              "name": "cost",
              "type": "uint256"
            },
            {
              "internalType": "string",
              "name": "imageURL",
              "type": "string"
            },
            {
              "internalType": "uint256",
              "name": "timestamp",
              "type": "uint256"
            }
          ],
          "internalType": "struct Minting.SaleStruct",
          "name": "",
          "type": "tuple"
        }
      ],
      "stateMutability": "view",
      "type": "function"
    },
    {
      "inputs": [
        {
          "internalType": "uint256",
          "name": "tokenId",
          "type": "uint256"
        }
      ],
      "name": "getApproved",
      "outputs": [
        {
          "internalType": "address",
          "name": "",
          "type": "address"
        }
      ],
      "stateMutability": "view",
      "type": "function"
    },
    {
      "inputs": [
        {
          "internalType": "address",
          "name": "owner",
          "type": "address"
        },
        {
          "internalType": "address",
          "name": "operator",
          "type": "address"
        }
      ],
      "name": "isApprovedForAll",
      "outputs": [
        {
          "internalType": "bool",
          "name": "",
          "type": "bool"
        }
      ],
      "stateMutability": "view",
      "type": "function"
    },
    {
      "inputs": [],
      "name": "maxSupply",
      "outputs": [
        {
          "internalType": "uint256",
          "name": "",
          "type": "uint256"
        }
      ],
      "stateMutability": "view",
      "type": "function"
    },
    {
      "inputs": [],
      "name": "name",
      "outputs": [
        {
          "internalType": "string",
          "name": "",
          "type": "string"
        }
      ],
      "stateMutability": "view",
      "type": "function"
    },
    {
      "inputs": [],
      "name": "owner",
      "outputs": [
        {
          "internalType": "address",
          "name": "",
          "type": "address"
        }
      ],
      "stateMutability": "view",
      "type": "function"
    },
    {
      "inputs": [
        {
          "internalType": "uint256",
          "name": "tokenId",
          "type": "uint256"
        }
      ],
      "name": "ownerOf",
      "outputs": [
        {
          "internalType": "address",
          "name": "",
          "type": "address"
        }
      ],
      "stateMutability": "view",
      "type": "function"
    },
    {
      "inputs": [],
      "name": "paused",
      "outputs": [
        {
          "internalType": "bool",
          "name": "",
          "type": "bool"
        }
      ],
      "stateMutability": "view",
      "type": "function"
    },
    {
      "inputs": [
        {
          "internalType": "address",
          "name": "to",
          "type": "address"
        },
        {
          "internalType": "uint256",
          "name": "amount",
          "type": "uint256"
        }
      ],
      "name": "payTo",
      "outputs": [],
      "stateMutability": "nonpayable",
      "type": "function"
    },
    {
      "inputs": [],
      "name": "payToMint",
      "outputs": [],
      "stateMutability": "payable",
      "type": "function"
    },
    {
      "inputs": [],
      "name": "renounceOwnership",
      "outputs": [],
      "stateMutability": "nonpayable",
      "type": "function"
    },
    {
      "inputs": [
        {
          "internalType": "address",
          "name": "from",
          "type": "address"
        },
        {
          "internalType": "address",
          "name": "to",
          "type": "address"
        },
        {
          "internalType": "uint256",
          "name": "tokenId",
          "type": "uint256"
        }
      ],
      "name": "safeTransferFrom",
      "outputs": [],
      "stateMutability": "nonpayable",
      "type": "function"
    },
    {
      "inputs": [
        {
          "internalType": "address",
          "name": "from",
          "type": "address"
        },
        {
          "internalType": "address",
          "name": "to",
          "type": "address"
        },
        {
          "internalType": "uint256",
          "name": "tokenId",
          "type": "uint256"
        },
        {
          "internalType": "bytes",
          "name": "data",
          "type": "bytes"
        }
      ],
      "name": "safeTransferFrom",
      "outputs": [],
      "stateMutability": "nonpayable",
      "type": "function"
    },
    {
      "inputs": [
        {
          "internalType": "address",
          "name": "operator",
          "type": "address"
        },
        {
          "internalType": "bool",
          "name": "approved",
          "type": "bool"
        }
      ],
      "name": "setApprovalForAll",
      "outputs": [],
      "stateMutability": "nonpayable",
      "type": "function"
    },
    {
      "inputs": [
        {
          "internalType": "string",
          "name": "_newBaseURI",
          "type": "string"
        }
      ],
      "name": "setBaseURI",
      "outputs": [],
      "stateMutability": "nonpayable",
      "type": "function"
    },
    {
      "inputs": [
        {
          "internalType": "uint256",
          "name": "_newCost",
          "type": "uint256"
        }
      ],
      "name": "setCost",
      "outputs": [],
      "stateMutability": "nonpayable",
      "type": "function"
    },
    {
      "inputs": [
        {
          "internalType": "uint256",
          "name": "_newsupply",
          "type": "uint256"
        }
      ],
      "name": "setMaxsupply",
      "outputs": [],
      "stateMutability": "nonpayable",
      "type": "function"
    },
    {
      "inputs": [
        {
          "internalType": "bool",
          "name": "_state",
          "type": "bool"
        }
      ],
      "name": "setPause",
      "outputs": [],
      "stateMutability": "nonpayable",
      "type": "function"
    },
    {
      "inputs": [
        {
          "internalType": "bytes4",
          "name": "interfaceId",
          "type": "bytes4"
        }
      ],
      "name": "supportsInterface",
      "outputs": [
        {
          "internalType": "bool",
          "name": "",
          "type": "bool"
        }
      ],
      "stateMutability": "view",
      "type": "function"
    },
    {
      "inputs": [],
      "name": "symbol",
      "outputs": [
        {
          "internalType": "string",
          "name": "",
          "type": "string"
        }
      ],
      "stateMutability": "view",
      "type": "function"
    },
    {
      "inputs": [
        {
          "internalType": "uint256",
          "name": "index",
          "type": "uint256"
        }
      ],
      "name": "tokenByIndex",
      "outputs": [
        {
          "internalType": "uint256",
          "name": "",
          "type": "uint256"
        }
      ],
      "stateMutability": "view",
      "type": "function"
    },
    {
      "inputs": [
        {
          "internalType": "address",
          "name": "owner",
          "type": "address"
        },
        {
          "internalType": "uint256",
          "name": "index",
          "type": "uint256"
        }
      ],
      "name": "tokenOfOwnerByIndex",
      "outputs": [
        {
          "internalType": "uint256",
          "name": "",
          "type": "uint256"
        }
      ],
      "stateMutability": "view",
      "type": "function"
    },
    {
      "inputs": [
        {
          "internalType": "uint256",
          "name": "tokenId",
          "type": "uint256"
        }
      ],
      "name": "tokenURI",
      "outputs": [
        {
          "internalType": "string",
          "name": "",
          "type": "string"
        }
      ],
      "stateMutability": "view",
      "type": "function"
    },
    {
      "inputs": [],
      "name": "totalSupply",
      "outputs": [
        {
          "internalType": "uint256",
          "name": "",
          "type": "uint256"
        }
      ],
      "stateMutability": "view",
      "type": "function"
    },
    {
      "inputs": [
        {
          "internalType": "address",
          "name": "from",
          "type": "address"
        },
        {
          "internalType": "address",
          "name": "to",
          "type": "address"
        },
        {
          "internalType": "uint256",
          "name": "tokenId",
          "type": "uint256"
        }
      ],
      "name": "transferFrom",
      "outputs": [],
      "stateMutability": "nonpayable",
      "type": "function"
    },
    {
      "inputs": [
        {
          "internalType": "address",
          "name": "newOwner",
          "type": "address"
        }
      ],
      "name": "transferOwnership",
      "outputs": [],
      "stateMutability": "nonpayable",
      "type": "function"
    }
  ],
  "bytecode": "0x60c06040526005608081905264173539b7b760d91b60a09081526200002891600c9190620001dc565b506040805180820190915260058082526402e776562760dc1b60209092019182526200005791600d91620001dc565b5066038d7ea4c68000600e556063600f556010805460ff191690553480156200007f57600080fd5b5060405162002a2a38038062002a2a833981016040819052620000a2916200034f565b825183908390620000bb906000906020850190620001dc565b508051620000d1906001906020840190620001dc565b505050620000ee620000e86200010260201b60201c565b62000106565b620000f98162000158565b5050506200041d565b3390565b600a80546001600160a01b038381166001600160a01b0319831681179093556040519116919082907f8be0079c531659141344cd1fd0a4f28419497f9722a3daafe3b4186f6b6457e090600090a35050565b620001626200017b565b80516200017790600b906020840190620001dc565b5050565b600a546001600160a01b03163314620001da5760405162461bcd60e51b815260206004820181905260248201527f4f776e61626c653a2063616c6c6572206973206e6f7420746865206f776e6572604482015260640160405180910390fd5b565b828054620001ea90620003e0565b90600052602060002090601f0160209004810192826200020e576000855562000259565b82601f106200022957805160ff191683800117855562000259565b8280016001018555821562000259579182015b82811115620002595782518255916020019190600101906200023c565b50620002679291506200026b565b5090565b5b808211156200026757600081556001016200026c565b634e487b7160e01b600052604160045260246000fd5b600082601f830112620002aa57600080fd5b81516001600160401b0380821115620002c757620002c762000282565b604051601f8301601f19908116603f01168101908282118183101715620002f257620002f262000282565b816040528381526020925086838588010111156200030f57600080fd5b600091505b8382101562000333578582018301518183018401529082019062000314565b83821115620003455760008385830101525b9695505050505050565b6000806000606084860312156200036557600080fd5b83516001600160401b03808211156200037d57600080fd5b6200038b8783880162000298565b94506020860151915080821115620003a257600080fd5b620003b08783880162000298565b93506040860151915080821115620003c757600080fd5b50620003d68682870162000298565b9150509250925092565b600181811c90821680620003f557607f821691505b602082108114156200041757634e487b7160e01b600052602260045260246000fd5b50919050565b6125fd806200042d6000396000f3fe6080604052600436106101e35760003560e01c80636352211e11610102578063b88d4fde11610095578063d5abeb0111610064578063d5abeb0114610553578063e0391b0914610569578063e985e9c51461058b578063f2fde38b146105d457600080fd5b8063b88d4fde146104de578063bedb86fb146104fe578063c66828621461051e578063c87b56dd1461053357600080fd5b80637bf08621116100d15780637bf086211461046b5780638da5cb5b1461048b57806395d89b41146104a9578063a22cb465146104be57600080fd5b80636352211e146103e957806368ef9d3c1461040957806370a0823114610436578063715018a61461045657600080fd5b806323b872dd1161017a5780634f6ccce7116101495780634f6ccce714610387578063509c7180146103a757806355f804b3146103af5780635c975abb146103cf57600080fd5b806323b872dd146103075780632f745c591461032757806342842e0e1461034757806344a0d68a1461036757600080fd5b8063095ea7b3116101b6578063095ea7b31461028c57806313faede6146102ae578063149835a0146102d257806318160ddd146102f257600080fd5b806301ffc9a7146101e857806303b0f38d1461021d57806306fdde031461023f578063081812fc14610254575b600080fd5b3480156101f457600080fd5b50610208610203366004611f22565b6105f4565b60405190151581526020015b60405180910390f35b34801561022957600080fd5b5061023261061f565b6040516102149190611f97565b34801561024b57600080fd5b506102326106ad565b34801561026057600080fd5b5061027461026f366004611faa565b61073f565b6040516001600160a01b039091168152602001610214565b34801561029857600080fd5b506102ac6102a7366004611fdf565b610766565b005b3480156102ba57600080fd5b506102c4600e5481565b604051908152602001610214565b3480156102de57600080fd5b506102ac6102ed366004611faa565b610881565b3480156102fe57600080fd5b506008546102c4565b34801561031357600080fd5b506102ac610322366004612009565b61088e565b34801561033357600080fd5b506102c4610342366004611fdf565b6108bf565b34801561035357600080fd5b506102ac610362366004612009565b610955565b34801561037357600080fd5b506102ac610382366004611faa565b610970565b34801561039357600080fd5b506102c46103a2366004611faa565b61097d565b6102ac610a10565b3480156103bb57600080fd5b506102ac6103ca3660046120d1565b610c73565b3480156103db57600080fd5b506010546102089060ff1681565b3480156103f557600080fd5b50610274610404366004611faa565b610c92565b34801561041557600080fd5b50610429610424366004611faa565b610cf2565b6040516102149190612169565b34801561044257600080fd5b506102c461045136600461217c565b610e49565b34801561046257600080fd5b506102ac610ecf565b34801561047757600080fd5b506102ac610486366004611fdf565b610ee3565b34801561049757600080fd5b50600a546001600160a01b0316610274565b3480156104b557600080fd5b50610232610f4b565b3480156104ca57600080fd5b506102ac6104d93660046121a7565b610f5a565b3480156104ea57600080fd5b506102ac6104f93660046121da565b610f65565b34801561050a57600080fd5b506102ac610519366004612256565b610f9d565b34801561052a57600080fd5b50610232610fb8565b34801561053f57600080fd5b5061023261054e366004611faa565b610fc5565b34801561055f57600080fd5b506102c4600f5481565b34801561057557600080fd5b5061057e6110a3565b6040516102149190612271565b34801561059757600080fd5b506102086105a63660046122d3565b6001600160a01b03918216600090815260056020908152604080832093909416825291909152205460ff1690565b3480156105e057600080fd5b506102ac6105ef36600461217c565b6111c9565b60006001600160e01b0319821663780e9d6360e01b1480610619575061061982611242565b92915050565b600d805461062c906122fd565b80601f0160208091040260200160405190810160405280929190818152602001828054610658906122fd565b80156106a55780601f1061067a576101008083540402835291602001916106a5565b820191906000526020600020905b81548152906001019060200180831161068857829003601f168201915b505050505081565b6060600080546106bc906122fd565b80601f01602080910402602001604051908101604052809291908181526020018280546106e8906122fd565b80156107355780601f1061070a57610100808354040283529160200191610735565b820191906000526020600020905b81548152906001019060200180831161071857829003601f168201915b5050505050905090565b600061074a82611292565b506000908152600460205260409020546001600160a01b031690565b600061077182610c92565b9050806001600160a01b0316836001600160a01b031614156107e45760405162461bcd60e51b815260206004820152602160248201527f4552433732313a20617070726f76616c20746f2063757272656e74206f776e656044820152603960f91b60648201526084015b60405180910390fd5b336001600160a01b0382161480610800575061080081336105a6565b6108725760405162461bcd60e51b815260206004820152603d60248201527f4552433732313a20617070726f76652063616c6c6572206973206e6f7420746f60448201527f6b656e206f776e6572206f7220617070726f76656420666f7220616c6c00000060648201526084016107db565b61087c83836112f1565b505050565b61088961135f565b600f55565b61089833826113b9565b6108b45760405162461bcd60e51b81526004016107db90612338565b61087c838383611438565b60006108ca83610e49565b821061092c5760405162461bcd60e51b815260206004820152602b60248201527f455243373231456e756d657261626c653a206f776e657220696e646578206f7560448201526a74206f6620626f756e647360a81b60648201526084016107db565b506001600160a01b03919091166000908152600660209081526040808320938352929052205490565b61087c83838360405180602001604052806000815250610f65565b61097861135f565b600e55565b600061098860085490565b82106109eb5760405162461bcd60e51b815260206004820152602c60248201527f455243373231456e756d657261626c653a20676c6f62616c20696e646578206f60448201526b7574206f6620626f756e647360a01b60648201526084016107db565b600882815481106109fe576109fe612385565b90600052602060002001549050919050565b6000610a1b60085490565b60105490915060ff1615610a715760405162461bcd60e51b815260206004820152601760248201527f4e46547320756e646572206d61696e74656e616e63652100000000000000000060448201526064016107db565b600f54811115610acd5760405162461bcd60e51b815260206004820152602160248201527f536f7272792c20616c6c204e4654732068617665206265656e206d696e7465646044820152602160f81b60648201526084016107db565b60003411610b1d5760405162461bcd60e51b815260206004820152601a60248201527f457468657220746f6f206c6f7720666f72206d696e74696e672100000000000060448201526064016107db565b600a546001600160a01b03163314610b3e57600e54341015610b3e57600080fd5b610b5233610b4d8360016123b1565b6115a9565b60116040518060a00160405280836001610b6c91906123b1565b8152336020820152346040820152606001610b90610b8b8560016123b1565b6115c3565b81524260209182015282546001808201855560009485529382902083516005909202019081558282015193810180546001600160a01b0319166001600160a01b03909516949094179093556040820151600284015560608201518051929392610bff9260038501920190611e73565b5060809190910151600490910155610c1b61054e8260016123b1565b604051610c2891906123c9565b6040805191829003822083835234602084015242838301529051909133917fb9508407a6eccb191d8da3286f4173697cf95604e9ea192fe5ab7c862b5221f69181900360600190a350565b610c7b61135f565b8051610c8e90600b906020840190611e73565b5050565b6000818152600260205260408120546001600160a01b0316806106195760405162461bcd60e51b8152602060048201526018602482015277115490cdcc8c4e881a5b9d985b1a59081d1bdad95b88125160421b60448201526064016107db565b610d2d6040518060a001604052806000815260200160006001600160a01b031681526020016000815260200160608152602001600081525090565b6011610d3a6001846123e5565b81548110610d4a57610d4a612385565b90600052602060002090600502016040518060a0016040529081600082015481526020016001820160009054906101000a90046001600160a01b03166001600160a01b03166001600160a01b0316815260200160028201548152602001600382018054610db6906122fd565b80601f0160208091040260200160405190810160405280929190818152602001828054610de2906122fd565b8015610e2f5780601f10610e0457610100808354040283529160200191610e2f565b820191906000526020600020905b815481529060010190602001808311610e1257829003601f168201915b505050505081526020016004820154815250509050919050565b60006001600160a01b038216610eb35760405162461bcd60e51b815260206004820152602960248201527f4552433732313a2061646472657373207a65726f206973206e6f7420612076616044820152683634b21037bbb732b960b91b60648201526084016107db565b506001600160a01b031660009081526003602052604090205490565b610ed761135f565b610ee1600061160d565b565b610eeb61135f565b6000826001600160a01b03168260405160006040518083038185875af1925050503d8060008114610f38576040519150601f19603f3d011682016040523d82523d6000602084013e610f3d565b606091505b505090508061087c57600080fd5b6060600180546106bc906122fd565b610c8e33838361165f565b610f6f33836113b9565b610f8b5760405162461bcd60e51b81526004016107db90612338565b610f978484848461172e565b50505050565b610fa561135f565b6010805460ff1916911515919091179055565b600c805461062c906122fd565b6000818152600260205260409020546060906001600160a01b03166110445760405162461bcd60e51b815260206004820152602f60248201527f4552433732314d657461646174613a2055524920717565727920666f72206e6f60448201526e3732bc34b9ba32b73a103a37b5b2b760891b60648201526084016107db565b600061104e611761565b9050600081511161106e576040518060200160405280600081525061109c565b8061107884611770565b600c60405160200161108c939291906123fc565b6040516020818303038152906040525b9392505050565b60606011805480602002602001604051908101604052809291908181526020016000905b828210156111c05760008481526020908190206040805160a081018252600586029092018054835260018101546001600160a01b031693830193909352600283015490820152600382018054919291606084019190611125906122fd565b80601f0160208091040260200160405190810160405280929190818152602001828054611151906122fd565b801561119e5780601f106111735761010080835404028352916020019161119e565b820191906000526020600020905b81548152906001019060200180831161118157829003601f168201915b50505050508152602001600482015481525050815260200190600101906110c7565b50505050905090565b6111d161135f565b6001600160a01b0381166112365760405162461bcd60e51b815260206004820152602660248201527f4f776e61626c653a206e6577206f776e657220697320746865207a65726f206160448201526564647265737360d01b60648201526084016107db565b61123f8161160d565b50565b60006001600160e01b031982166380ac58cd60e01b148061127357506001600160e01b03198216635b5e139f60e01b145b8061061957506301ffc9a760e01b6001600160e01b0319831614610619565b6000818152600260205260409020546001600160a01b031661123f5760405162461bcd60e51b8152602060048201526018602482015277115490cdcc8c4e881a5b9d985b1a59081d1bdad95b88125160421b60448201526064016107db565b600081815260046020526040902080546001600160a01b0319166001600160a01b038416908117909155819061132682610c92565b6001600160a01b03167f8c5be1e5ebec7d5bd14f71427d1e84f3dd0314c0f7b2291e5b200ac8c7c3b92560405160405180910390a45050565b600a546001600160a01b03163314610ee15760405162461bcd60e51b815260206004820181905260248201527f4f776e61626c653a2063616c6c6572206973206e6f7420746865206f776e657260448201526064016107db565b6000806113c583610c92565b9050806001600160a01b0316846001600160a01b0316148061140c57506001600160a01b0380821660009081526005602090815260408083209388168352929052205460ff165b806114305750836001600160a01b03166114258461073f565b6001600160a01b0316145b949350505050565b826001600160a01b031661144b82610c92565b6001600160a01b0316146114715760405162461bcd60e51b81526004016107db906124c0565b6001600160a01b0382166114d35760405162461bcd60e51b8152602060048201526024808201527f4552433732313a207472616e7366657220746f20746865207a65726f206164646044820152637265737360e01b60648201526084016107db565b6114e0838383600161180d565b826001600160a01b03166114f382610c92565b6001600160a01b0316146115195760405162461bcd60e51b81526004016107db906124c0565b600081815260046020908152604080832080546001600160a01b03199081169091556001600160a01b0387811680865260038552838620805460001901905590871680865283862080546001019055868652600290945282852080549092168417909155905184937fddf252ad1be2c89b69c2b068fc378daa952ba7f163c4a11628f55a4df523b3ef91a4505050565b610c8e828260405180602001604052806000815250611941565b606060006115cf611761565b905060008151116115ef576040518060200160405280600081525061109c565b806115f984611770565b600d60405160200161108c939291906123fc565b600a80546001600160a01b038381166001600160a01b0319831681179093556040519116919082907f8be0079c531659141344cd1fd0a4f28419497f9722a3daafe3b4186f6b6457e090600090a35050565b816001600160a01b0316836001600160a01b031614156116c15760405162461bcd60e51b815260206004820152601960248201527f4552433732313a20617070726f766520746f2063616c6c65720000000000000060448201526064016107db565b6001600160a01b03838116600081815260056020908152604080832094871680845294825291829020805460ff191686151590811790915591519182527f17307eab39ab6107e8899845ad3d59bd9653f200f220920489ca2b5937696c31910160405180910390a3505050565b611739848484611438565b61174584848484611974565b610f975760405162461bcd60e51b81526004016107db90612505565b6060600b80546106bc906122fd565b6060600061177d83611a72565b600101905060008167ffffffffffffffff81111561179d5761179d612045565b6040519080825280601f01601f1916602001820160405280156117c7576020820181803683370190505b5090508181016020015b600019016f181899199a1a9b1b9c1cb0b131b232b360811b600a86061a8153600a850494508461180057611805565b6117d1565b509392505050565b600181111561187c5760405162461bcd60e51b815260206004820152603560248201527f455243373231456e756d657261626c653a20636f6e7365637574697665207472604482015274185b9cd9995c9cc81b9bdd081cdd5c1c1bdc9d1959605a1b60648201526084016107db565b816001600160a01b0385166118d8576118d381600880546000838152600960205260408120829055600182018355919091527ff3f7a9fe364faab93b216da50a3214154f22a0a2b415b23a84c8169e8b636ee30155565b6118fb565b836001600160a01b0316856001600160a01b0316146118fb576118fb8582611b4a565b6001600160a01b0384166119175761191281611be7565b61193a565b846001600160a01b0316846001600160a01b03161461193a5761193a8482611c96565b5050505050565b61194b8383611cda565b6119586000848484611974565b61087c5760405162461bcd60e51b81526004016107db90612505565b60006001600160a01b0384163b15611a6757604051630a85bd0160e11b81526001600160a01b0385169063150b7a02906119b8903390899088908890600401612557565b6020604051808303816000875af19250505080156119f3575060408051601f3d908101601f191682019092526119f091810190612594565b60015b611a4d573d808015611a21576040519150601f19603f3d011682016040523d82523d6000602084013e611a26565b606091505b508051611a455760405162461bcd60e51b81526004016107db90612505565b805181602001fd5b6001600160e01b031916630a85bd0160e11b149050611430565b506001949350505050565b60008072184f03e93ff9f4daa797ed6e38ed64bf6a1f0160401b8310611ab15772184f03e93ff9f4daa797ed6e38ed64bf6a1f0160401b830492506040015b6d04ee2d6d415b85acef81000000008310611add576d04ee2d6d415b85acef8100000000830492506020015b662386f26fc100008310611afb57662386f26fc10000830492506010015b6305f5e1008310611b13576305f5e100830492506008015b6127108310611b2757612710830492506004015b60648310611b39576064830492506002015b600a83106106195760010192915050565b60006001611b5784610e49565b611b6191906123e5565b600083815260076020526040902054909150808214611bb4576001600160a01b03841660009081526006602090815260408083208584528252808320548484528184208190558352600790915290208190555b5060009182526007602090815260408084208490556001600160a01b039094168352600681528383209183525290812055565b600854600090611bf9906001906123e5565b60008381526009602052604081205460088054939450909284908110611c2157611c21612385565b906000526020600020015490508060088381548110611c4257611c42612385565b6000918252602080832090910192909255828152600990915260408082208490558582528120556008805480611c7a57611c7a6125b1565b6001900381819060005260206000200160009055905550505050565b6000611ca183610e49565b6001600160a01b039093166000908152600660209081526040808320868452825280832085905593825260079052919091209190915550565b6001600160a01b038216611d305760405162461bcd60e51b815260206004820181905260248201527f4552433732313a206d696e7420746f20746865207a65726f206164647265737360448201526064016107db565b6000818152600260205260409020546001600160a01b031615611d955760405162461bcd60e51b815260206004820152601c60248201527f4552433732313a20746f6b656e20616c7265616479206d696e7465640000000060448201526064016107db565b611da360008383600161180d565b6000818152600260205260409020546001600160a01b031615611e085760405162461bcd60e51b815260206004820152601c60248201527f4552433732313a20746f6b656e20616c7265616479206d696e7465640000000060448201526064016107db565b6001600160a01b038216600081815260036020908152604080832080546001019055848352600290915280822080546001600160a01b0319168417905551839291907fddf252ad1be2c89b69c2b068fc378daa952ba7f163c4a11628f55a4df523b3ef908290a45050565b828054611e7f906122fd565b90600052602060002090601f016020900481019282611ea15760008555611ee7565b82601f10611eba57805160ff1916838001178555611ee7565b82800160010185558215611ee7579182015b82811115611ee7578251825591602001919060010190611ecc565b50611ef3929150611ef7565b5090565b5b80821115611ef35760008155600101611ef8565b6001600160e01b03198116811461123f57600080fd5b600060208284031215611f3457600080fd5b813561109c81611f0c565b60005b83811015611f5a578181015183820152602001611f42565b83811115610f975750506000910152565b60008151808452611f83816020860160208601611f3f565b601f01601f19169290920160200192915050565b60208152600061109c6020830184611f6b565b600060208284031215611fbc57600080fd5b5035919050565b80356001600160a01b0381168114611fda57600080fd5b919050565b60008060408385031215611ff257600080fd5b611ffb83611fc3565b946020939093013593505050565b60008060006060848603121561201e57600080fd5b61202784611fc3565b925061203560208501611fc3565b9150604084013590509250925092565b634e487b7160e01b600052604160045260246000fd5b600067ffffffffffffffff8084111561207657612076612045565b604051601f8501601f19908116603f0116810190828211818310171561209e5761209e612045565b816040528093508581528686860111156120b757600080fd5b858560208301376000602087830101525050509392505050565b6000602082840312156120e357600080fd5b813567ffffffffffffffff8111156120fa57600080fd5b8201601f8101841361210b57600080fd5b6114308482356020840161205b565b8051825260018060a01b036020820151166020830152604081015160408301526000606082015160a0606085015261215560a0850182611f6b565b608093840151949093019390935250919050565b60208152600061109c602083018461211a565b60006020828403121561218e57600080fd5b61109c82611fc3565b80358015158114611fda57600080fd5b600080604083850312156121ba57600080fd5b6121c383611fc3565b91506121d160208401612197565b90509250929050565b600080600080608085870312156121f057600080fd5b6121f985611fc3565b935061220760208601611fc3565b925060408501359150606085013567ffffffffffffffff81111561222a57600080fd5b8501601f8101871361223b57600080fd5b61224a8782356020840161205b565b91505092959194509250565b60006020828403121561226857600080fd5b61109c82612197565b6000602080830181845280855180835260408601915060408160051b870101925083870160005b828110156122c657603f198886030184526122b485835161211a565b94509285019290850190600101612298565b5092979650505050505050565b600080604083850312156122e657600080fd5b6122ef83611fc3565b91506121d160208401611fc3565b600181811c9082168061231157607f821691505b6020821081141561233257634e487b7160e01b600052602260045260246000fd5b50919050565b6020808252602d908201527f4552433732313a2063616c6c6572206973206e6f7420746f6b656e206f776e6560408201526c1c881bdc88185c1c1c9bdd9959609a1b606082015260800190565b634e487b7160e01b600052603260045260246000fd5b634e487b7160e01b600052601160045260246000fd5b600082198211156123c4576123c461239b565b500190565b600082516123db818460208701611f3f565b9190910192915050565b6000828210156123f7576123f761239b565b500390565b60008451602061240f8285838a01611f3f565b8551918401916124228184848a01611f3f565b8554920191600090600181811c908083168061243f57607f831692505b85831081141561245d57634e487b7160e01b85526022600452602485fd5b8080156124715760018114612482576124af565b60ff198516885283880195506124af565b60008b81526020902060005b858110156124a75781548a82015290840190880161248e565b505083880195505b50939b9a5050505050505050505050565b60208082526025908201527f4552433732313a207472616e736665722066726f6d20696e636f72726563742060408201526437bbb732b960d91b606082015260800190565b60208082526032908201527f4552433732313a207472616e7366657220746f206e6f6e20455243373231526560408201527131b2b4bb32b91034b6b83632b6b2b73a32b960711b606082015260800190565b6001600160a01b038581168252841660208201526040810183905260806060820181905260009061258a90830184611f6b565b9695505050505050565b6000602082840312156125a657600080fd5b815161109c81611f0c565b634e487b7160e01b600052603160045260246000fdfea2646970667358221220a21cb0059dbde8ab0da0a5c6c562ee141982cb79c987c1310e4d7bea8deedc9564736f6c634300080b0033",
  "linkReferences": {},
  "deployedLinkReferences": {}
}